:020000040800F2
:1000000000000A20E9310008C9080008CB080008F0
:10001000CD080008CF080008D10800080000000043
:10002000000000000000000000000000D3080008ED
:10003000D508000800000000D7080008D90800080B
:1000400039320008393200083932000839320008E4
:1000500039320008393200083932000839320008D4
:1000600039320008393200083932000839320008C4
:1000700039320008393200083932000839320008B4
:1000800039320008393200083932000839320008A4
:100090003932000839320008393200083932000894
:1000A0003932000839320008393200083932000884
:1000B0003932000839320008393200083932000874
:1000C0003932000839320008393200083932000864
:1000D0003932000839320008393200083932000854
:1000E0003932000839320008393200083932000844
:1000F00039320008393200083932000800000000A7
:100100003932000839320008393200083932000823
:100110003932000839320008393200083932000813
:100120003932000839320008393200083932000803
:1001300039320008393200083932000839320008F3
:1001400039320008393200083932000839320008E3
:1001500039320008393200083932000839320008D3
:1001600039320008393200083932000839320008C3
:100170003932000839320008000000000000000099
:1001800039320008393200083932000839320008A3
:100190003932000839320008000000000000000079
:1001A0000000000000000000393200083932000869
:1001B00039320008393200083932000800000000E6
:1001C00010B5054C237833B9044B13B10448AFF391
:1001D00000800123237010BD1000002000000000EB
:1001E0009432000808B5034B1BB103490348AFF331
:1001F000008008BD000000001400002094320008B8
:1002000053B94AB9002908BF00281CBF4FF0FF317D
:100210004FF0FF3000F074B9ADF1080C6DE904CE79
:1002200000F006F8DDF804E0DDE9022304B07047D1
:100230002DE9F047089D04468E46002B4DD18A4299
:10024000944669D9B2FA82F252B101FA02F3C2F1CC
:10025000200120FA01F10CFA02FC41EA030E94405D
:100260004FEA1C48210CBEFBF8F61FFA8CF708FB7E
:1002700016E341EA034306FB07F199420AD91CEB56
:10028000030306F1FF3080F01F81994240F21C8188
:10029000023E63445B1AA4B2B3FBF8F008FB1033D0
:1002A00044EA034400FB07F7A7420AD91CEB040405
:1002B00000F1FF3380F00A81A74240F207816444D5
:1002C000023840EA0640E41B00261DB1D44000235A
:1002D000C5E900433146BDE8F0878B4209D9002DBE
:1002E00000F0EF800026C5E9000130463146BDE848
:1002F000F087B3FA83F6002E4AD18B4202D38242B2
:1003000000F2F980841A61EB030301209E46002D60
:10031000E0D0C5E9004EDDE702B9FFDEB2FA82F2B5
:10032000002A40F09280A1EB0C014FEA1C471FFA13
:100330008CFE0126200CB1FBF7F307FB131140EAFA
:1003400001410EFB03F0884208D91CEB010103F1C7
:10035000FF3802D2884200F2CB804346091AA4B289
:10036000B1FBF7F007FB101144EA01440EFB00FE5D
:10037000A64508D91CEB040400F1FF3102D2A645C2
:1003800000F2BB800846A4EB0E0440EA03409CE761
:10039000C6F12007B34022FA07FC4CEA030C20FA0E
:1003A00007F401FA06F31C43F9404FEA1C4900FA2E
:1003B00006F3B1FBF9F8200C1FFA8CFE09FB1811AB
:1003C00040EA014108FB0EF0884202FA06F20BD91E
:1003D0001CEB010108F1FF3A80F08880884240F26E
:1003E0008580A8F102086144091AA4B2B1FBF9F0B2
:1003F00009FB101144EA014100FB0EFE8E4508D9AD
:100400001CEB010100F1FF346CD28E456AD9023831
:10041000614440EA0840A0FB0294A1EB0E01A14216
:10042000C846A64656D353D05DB1B3EB080261EB84
:100430000E0101FA07F722FA06F3F1401F43C5E95E
:10044000007100263146BDE8F087C2F12003D84094
:100450000CFA02FC21FA03F3914001434FEA1C47D6
:100460001FFA8CFEB3FBF7F007FB10360B0C43EAC8
:10047000064300FB0EF69E4204FA02F408D91CEB78
:10048000030300F1FF382FD29E422DD90238634476
:100490009B1B89B2B3FBF7F607FB163341EA034116
:1004A00006FB0EF38B4208D91CEB010106F1FF3865
:1004B00016D28B4214D9023E6144C91A46EA00465C
:1004C00038E72E46284605E70646E3E61846F8E6EE
:1004D0004B45A9D2B9EB020864EB0C0E0138A3E737
:1004E0004646EAE7204694E74046D1E7D0467BE718
:1004F000023B614432E7304609E76444023842E790
:10050000704700BFF0B58BB00024059406940794A3
:10051000089409943D4BDA6C42F00402DA64DA6C18
:1005200002F004020092009ADA6C42F00102DA64EE
:10053000DA6C02F001020192019ADA6C42F01002C8
:10054000DA64DA6C02F010020292029ADA6C42F07B
:100550000202DA64DA6C02F002020392039ADA6CA5
:1005600042F00802DA64DB6C03F008030493049B96
:10057000224610214FF0904001F021FD244F2246E9
:1005800044F2B801384601F01AFD224D224680217E
:10059000284601F014FD10230593012606960794C2
:1005A000089405A94FF0904001F00AFC4FF4006355
:1005B00005930694079405A9174801F001FC4FF430
:1005C000304305930694079405A9384601F0F8FBDB
:1005D00044F2B803059306960794089405A9384693
:1005E00001F0EEFB402305930694079405A92846E5
:1005F00001F0E6FB8023059306960794089405A96D
:10060000284601F0DDFB0BB0F0BD00BF001002403A
:1006100000040048000800480010004872B6FEE7D9
:1006200008B51548154B03604FF4E13343600023D0
:100630008360C36003610C2242618361C361036212
:100640004362836202F0B1F970B900210A4802F0F6
:1006500024FA58B90021084802F044FA40B9064883
:1006600002F0FCF930B908BDFFF7D8FFFFF7D6FF5D
:10067000FFF7D4FFFFF7D2FF94000020004C0040AA
:1006800008B51548154B03604FF4E1334360002370
:100690008360C36003610C2242618361C3610362B2
:1006A0004362836202F081F970B900210A4802F0C6
:1006B000F4F958B90021084802F014FA40B9064884
:1006C00002F0CCF930B908BDFFF7A8FFFFF7A6FF8D
:1006D000FFF7A4FFFFF7A2FF240100200050004015
:1006E00000B587B000230093019302930393049312
:1006F00005931848184A026043608360C360036131
:1007000004224261037643760122C26180F82030E0
:100710008362C36280F83030436380F8383002F07F
:1007200007FA90B90D4B009306230193002302931F
:100730007F2203920422049205936946054802F041
:10074000E7FA20B907B05DF804FBFFF767FFFFF792
:1007500065FF00BF2C0000200000045002003004A0
:1007600000B597B04422002105A802F08BFD0023BC
:10077000009301930293039304934FF4007001F0EC
:1007800035FCD0B91023059301230B9300230C9360
:1007900060220D920F9305A800F0D2FA78B90F23CA
:1007A000009300210191029103910491684600F0A9
:1007B00005FE30B917B05DF804FBFFF72FFFFFF718
:1007C0002DFFFFF72BFF000008B500F0A5F9FFF79C
:1007D000C7FFFFF797FEFFF723FFFFF751FFFFF774
:1007E0007FFF01F0D5FD4021354801F0E1FB0128F4
:1007F0002AD04FF40041334801F0DAFB012833D00E
:100800004FF400512F4801F0D3FB012842D04FF4A0
:1008100080512C4801F0CCFB0128E4D1294C012265
:100820000821204601F0CBFB002210214FF0904020
:1008300001F0C5FB00223021204601F0C0FB4FF43F
:100840007A7000F08BF9CEE7012210214FF0904032
:1008500001F0B5FB002238211A4801F0B0FB4FF43B
:100860007A7000F07BF9C4E7164C01221021204673
:1008700001F0A5FB002210214FF0904001F09FFBFA
:1008800000222821204601F09AFB4FF47A7000F0F4
:1008900065F9B5E70B4C01222021204601F08FFBC2
:1008A000002210214FF0904001F089FB0022182116
:1008B000204601F084FB4FF47A7000F04FF9A6E770
:1008C0000008004800040048FEE7FEE7FEE7FEE7F8
:1008D000FEE770477047704708B500F02DF908BD76
:1008E00082B00A4B1A6E42F001021A661A6E02F0CA
:1008F00001020092009A9A6D42F080529A659B6DB7
:1009000003F080530193019B02B070470010024036
:1009100010B5ACB0044600212791289129912A9165
:100920002B91942202A802F0ADFC22681D4B9A4242
:1009300001D02CB010BD4FF4804302934FF0805390
:100940002293012303930493082305930223069320
:10095000079308934FF08073099302A800F0C2FF39
:10096000E8B9114BDA6C42F40052DA64DA6C02F442
:1009700000520092009ADA6C42F00402DA64DB6CF6
:1009800003F004030193019B012327930B23289376
:100990000023299327A9054801F012FAC9E7FFF7B8
:1009A0003DFEDEE700000450001002400008004851
:1009B000F0B5B1B0044600212B912C912D912E91D0
:1009C0002F91942206A802F05DFC2368394A9342D5
:1009D00004D0394A93422CD031B0F0BD082306939D
:1009E00006A800F07FFF08BB344B9A6D42F400224A
:1009F0009A659A6D02F400220192019ADA6C42F033
:100A00000102DA64DB6C03F001030293029B03230F
:100A10002B9302222C9200222D922E9308232F93A7
:100A20002BA94FF0904001F0CBF9D5E7FFF7F6FD89
:100A3000DAE71023069306A800F054FF002835D10A
:100A40001E4B9A6D42F480129A659A6D02F48012E0
:100A50000392039ADA6C42F00402DA64DA6C02F070
:100A600004020492049ADA6C42F00802DA64DB6C45
:100A700003F008030593059B4FF480532B93022743
:100A80002C9700262D9603252E9508242F942BA90C
:100A90000B4801F095F904232B932C972D962E9556
:100AA0002F942BA9074801F08BF995E7FFF7B6FDC6
:100AB000C6E700BF004C004000500040001002405C
:100AC00000080048000C0048104B1B780BB90120AF
:100AD000704710B504464FF47A70B0FBF3F30C4A3C
:100AE0001068B0FBF3F001F051FB68B90F2C01D98D
:100AF00001200AE0002221464FF0FF3001F00EFBFA
:100B0000044B1C60002000E0012010BD000000200C
:100B1000080000200400002010B5032001F0ECFACA
:100B20000F20FFF7D1FF10B10124204610BD04466D
:100B3000FFF7D6FEF9E70000034B1B78034A116864
:100B40000B441360704700BF00000020B401002078
:100B5000014B1868704700BFB401002038B5044647
:100B6000FFF7F6FF0546B4F1FF3F02D0044B1B78B8
:100B70001C44FFF7EDFF401BA042FAD338BD00BF75
:100B8000000000201A4BDB6803F00303022B2BD07C
:100B9000032B2BD0012B14D00021154AD368C3F3AB
:100BA00003130133D068C0F3062001FB00F0B0FB53
:100BB000F3F0D368C3F3416301335B00B0FBF3F0A0
:100BC00070470B4B1B6813F0080F08D1084BD3F884
:100BD0009430C3F30323074A52F82310DDE7044B94
:100BE0001B68C3F30313F6E70349D6E70349D4E7C9
:100BF00000100240C83200080024F40000127A00FD
:100C000030B583B004461F4B9B6D13F0805F0AD054
:100C100001F0DAF9B0F5007F16D07F2C1ED8702CC9
:100C20002BD000211BE0174DAB6D43F08053AB651B
:100C3000AB6D03F080530193019B01F0C5F9AB6DDF
:100C400023F08053AB65E5E7802C03D9A02C03D9B2
:100C5000022104E0002102E0012100E002210A4A11
:100C6000136823F00F030B431360136803F00F03A3
:100C70008B4204D1002003B030BD0121EFE70120F9
:100C8000F9E700BF0010024000200240284A9368A4
:100C9000D26802F0030213F00C030AD00C2B06D02A
:100CA000042B1FD0082B20D00020024610E0012A80
:100CB000F6D11F4A126812F0080F0CD11C4AD2F864
:100CC0009420C2F303221B4951F8222043B1002093
:100CD0000C2B0DD07047164A1268C2F30312F2E7CC
:100CE0001046F5E714480022F2E714480022EFE727
:100CF0000F4BDB6803F00303022B16D0032B00D14C
:100D00000E4A0B49C868C0F30310431CC868C0F3FF
:100D1000062002FB00F0B0FBF3F0CB68C3F34163A5
:100D200001335B00B0FBF3F0D4E7034AE9E700BF0F
:100D300000100240C83200080024F40000127A00BB
:100D4000002800F02283F0B583B00446964B9D68DE
:100D500005F00C05DE6806F00306036813F0100FBB
:100D60005AD0E5B10C2D18D0A369002B00F0BB8040
:100D70008D4A136843F001031360FFF7E9FE07464D
:100D8000894B1B6813F0020F40F09A80FFF7E0FEDA
:100D9000C01B0228F4D9032002E3012EE4D1824BC8
:100DA0001B6813F0020F03D0A369002B00F0EF8241
:100DB000206A7D4B1B6813F0080F5BD07A4B1B68D1
:100DC00003F0F00398425CD8774B1A6842F00802AF
:100DD0001A601A6822F0F002216A0A431A605A68FF
:100DE00022F47F42E16942EA01225A60002D60D07C
:100DF000FFF74CFF6C4B9B68C3F303136B4AD35C48
:100E000003F01F03D8406A4B18606A4B1868FFF75D
:100E10005BFE002840F0C482236813F0010F00F04D
:100E20008180082D75D00C2D71D06368B3F5803F9B
:100E300000F09780B3F5A02F00F099805A4B1A6804
:100E400022F480321A601A6822F480221A606368E1
:100E5000002B00F09980FFF77BFE0746524B1B6882
:100E600013F4003F5ED1FFF773FEC01B6428F5D971
:100E7000032095E24C4BD3F894301B0903F0F003A8
:100E8000A0E7FFF7BDFE002840F08382464B1A68BA
:100E900042F008021A601A6822F0F002216A0A433E
:100EA0001A605A6822F47F42E16942EA01225A60DC
:100EB0009EE7206AFFF7A4FE002899D001206FE288
:100EC000394B1A6842F008021A601A6822F0F002E0
:100ED000216A0A431A605A6822F47F42E16942EAB1
:100EE00001225A6098E7304A136823F00103136027
:100EF000FFF72EFE07462C4B1B6813F0020F8BD01A
:100F0000FFF726FEC01B0228F5D9032048E2032E76
:100F10008BD1254B1B6813F4003F03D06368002B73
:100F200000F03982236813F0020F58D0042D45D009
:100F30000C2D41D0E368002B77D01B4A136843F493
:100F400080731360FFF704FE0646174B1B6813F40B
:100F5000806F61D1FFF7FCFD801B0228F5D90320CB
:100F60001EE2114A136843F4803313606FE703F104
:100F70008043A3F53C331A6842F480221A601A6851
:100F800042F480321A6062E7FFF7E2FD0746064B43
:100F90001B6813F4003FC5D0FFF7DAFDC01B6428BF
:100FA000F5D90320FCE100BF00100240B032000878
:100FB0000800002004000020022EBBD1A74B1B68B4
:100FC00013F4806F03D0E368002B00F0E681A34A9E
:100FD000536823F0FE43216943EA016353602368A9
:100FE00013F0080F4CD063699BB39C4AD2F894303D
:100FF00043F00103C2F89430FFF7AAFD0646974B71
:10100000D3F8943013F0020F3AD1FFF7A1FD801B03
:101010000228F4D90320C3E1904A536823F0FE4329
:10102000216943EA01635360D9E78C4A136823F4CA
:1010300080731360FFF78CFD0646884B1B6813F422
:10104000806FCCD0FFF784FD801B0228F5D90320E8
:10105000A6E1824AD2F8943023F00103C2F894301A
:10106000FFF776FD06467D4BD3F8943013F0020F60
:1010700006D0FFF76DFD801B0228F4D903208FE115
:10108000236813F0040F7AD0744B9B6D13F0805FCC
:1010900036D1724B9A6D42F080529A659B6D03F087
:1010A00080530193019B01266D4B1B6813F4807FD5
:1010B00028D0A368012B39D0052B3FD0674BD3F83C
:1010C000902022F00102C3F89020D3F8902022F063
:1010D0000402C3F89020A368002B3DD0FFF738FD31
:1010E00007465E4BD3F8903013F0020F46D1FFF75E
:1010F0002FFDC01B41F288339842F2D903204FE103
:101100000026D1E7564A136843F480731360FFF753
:101110001FFD0746524B1B6813F4807FC9D1FFF7B0
:1011200017FDC01B0228F5D9032039E14B4AD2F83C
:10113000903043F00103C2F89030CCE7474BD3F82E
:10114000902042F00402C3F89020D3F8902042F09F
:101150000102C3F89020BEE7FFF7FAFC07463F4BB9
:10116000D3F8903013F0020F08D0FFF7F1FCC01B4A
:1011700041F288339842F2D9032011E1E6B923689D
:1011800013F0200F35D0636AE3B1344AD2F89830B7
:1011900043F00103C2F89830FFF7DAFC06462F4B04
:1011A000D3F8983013F0020F23D1FFF7D1FC801B46
:1011B0000228F4D90320F3E0284A936D23F08053EA
:1011C0009365DCE7254AD2F8983023F00103C2F892
:1011D0009830FFF7BDFC0646204BD3F8983013F04B
:1011E000020F06D0FFF7B4FC801B0228F4D90320BD
:1011F000D6E0A36A002B00F0D280022B17D00C2D72
:1012000000F0D480154A136823F080731360FFF751
:101210009FFC0446114B1B6813F0007F00F0AE806A
:10122000FFF796FC001B0228F4D90320B8E00B4B13
:10123000DB6803F00301E26A914213D00C2D00F049
:10124000B180064B1B6813F0806F40F0AD80034BFC
:101250001B6813F0805F2FD00120A1E00010024036
:101260000070004003F0F002216B0139B2EB011F66
:10127000E4D103F4FE42616BB2EB012FDED103F047
:101280007842A16BB2EBC16FD8D103F4C001E26B1D
:101290005208013AB1EB425FD0D103F0C063226C37
:1012A0005208013AB3EB426FC8D1414B1B6813F0AF
:1012B000007F49D0002073E03D4A136823F080731B
:1012C0001360FFF745FC0546394B1B6813F0007FA0
:1012D00006D0FFF73DFC401B0228F5D903205FE054
:1012E000334AD36833491940E36A206B013843EA33
:1012F0000013606B43EA0023E06B4008013843EAC7
:101300004053206C4008013843EA4063A06B43EA35
:10131000C0630B43D360136843F080731360D368DA
:1013200043F08073D360FFF713FC0446204B1B6827
:1013300013F0007F06D1FFF70BFC001B0228F5D944
:1013400003202DE000202BE0194B1A6842F0807238
:101350001A60DA6842F08072DA60FFF7F9FB04463F
:10136000134B1B6813F0007F06D1FFF7F1FB031B43
:10137000022BF5D9032013E0002011E00C4AD168BC
:101380000D4B0B40D36000200AE001207047012084
:1013900006E0012004E0012002E0012000E000203E
:1013A00003B0F0BD0120FBE70120F9E70120F7E7DA
:1013B000001002400C809D01FCFFEEFE002800F0B2
:1013C000EA80F8B50D460446774B1B6803F00F031F
:1013D0008B420BD2744A136823F00F030B43136044
:1013E000136803F00F038B4240F0D780236813F09B
:1013F000020F0CD0A2686D4B9B6803F0F0039A4279
:1014000005D96A498B6823F0F0031A438A60236880
:1014100013F0010F6ED06368032B0DD0022B25D083
:10142000002B3CD103F1804303F504331B6813F018
:10143000020F21D10120A7E05C4B1B6813F0007F55
:1014400001D10120A0E0FFF79DFB594B98422DD917
:10145000564B9B6813F0F00F2AD1544A936823F03F
:10146000F00343F080039360802724E04F4B1B6818
:1014700013F4003F00F09380FFF708FC4C4B9842B8
:1014800018D94A4B9B6813F0F00F2FD1474A936845
:1014900023F0F00343F08003936080270BE0434B7D
:1014A0001B6813F4806FE7D101206DE0002702E094
:1014B000002700E000273D4A936823F0030361689A
:1014C0000B439360FFF744FB0646384B9B6803F0E1
:1014D0000C036268B3EB820F0AD0FFF739FB801B65
:1014E00041F288339842F0D903204DE00027E2E72B
:1014F000002F4AD1236813F0020F0CD0A2682B4BA7
:101500009B6803F0F0039A4205D228498B6823F0C8
:10151000F0031A438A60244B1B6803F00F03AB42AD
:101520000AD9214A136823F00F032B431360136871
:1015300003F00F03AB4234D1236813F0040F06D03D
:101540001A4A936823F4E063E1680B4393602368CD
:1015500013F0080F07D0154A936823F460532169EC
:1015600043EAC1039360FFF791FB104B9B68C3F301
:101570000313104AD35C03F01F03D8400E4B1860CE
:101580000E4B1868FFF7A0FAF8BD084A936823F0DD
:10159000F0039360AEE7012070470120F4E70120DB
:1015A000F2E70120F0E700BF0020024000100240F7
:1015B00000B4C404B0320008080000200400002079
:1015C000014B1868704700BF0800002008B5FFF7FE
:1015D000F7FF054B9B68C3F30223044AD35C03F077
:1015E0001F03D84008BD00BF00100240C0320008F1
:1015F00008B5FFF7E5FF054B9B68C3F3C223044A18
:10160000D35C03F01F03D84008BD00BF00100240A8
:10161000C0320008F8B504460F46544BDB6813F09F
:10162000030F0ED0514BDB6803F0030302689342B3
:1016300002D001252846F8BD002A00F0958000253B
:1016400009E00368022B54D0032B59D0012B43D05F
:101650000125002DEED1454A136823F08053136015
:10166000FFF776FA0646414B1B6813F0005F05D082
:10167000FFF76EFA831B022BF5D90325002DD9D174
:10168000002F4BD139484369394A1A40A168E368B1
:10169000DB0643EA01236168013943EA011313437E
:1016A0004361324A136843F080531360FFF750FAE6
:1016B00006462E4B1B6813F0005F05D1FFF748FA72
:1016C000831B022BF5D90325002DB3D1274A53697B
:1016D000A1690B435361ADE7244A126812F0020F6F
:1016E0001AD02249CA6822F003021343CB600025B6
:1016F000AFE71E4A126812F4806FF2D10125A8E705
:101700001A4A126812F4003FEBD1184A126812F418
:10171000802FE6D101259CE701259AE7012F11D002
:1017200012484369134A1A40A16863695B08013B88
:101730005B0643EA01236168013943EA011313435D
:101740004361AEE7094843690B4A1A40A16823691F
:101750005B08013B5B0543EA01236168013943EA09
:101760000113134343619CE7012563E70010024026
:101770000F80FF070F80FFF90F809FFFF8B5044629
:101780000F46544BDB6813F0030F0ED0514BDB6850
:1017900003F003030268934202D001252846F8BDF6
:1017A000002A00F09580002509E00368022B54D040
:1017B000032B59D0012B43D00125002DEED1454AF2
:1017C000136823F080631360FFF7C2F90646414BAC
:1017D0001B6813F0006F05D0FFF7BAF9831B022BCB
:1017E000F5D90325002DD9D1002F4BD139480369F4
:1017F000394A1A40A168E368DB0643EA01236168BD
:10180000013943EA011313430361324A136843F079
:1018100080631360FFF79CF906462E4B1B6813F09C
:10182000006F05D1FFF794F9831B022BF5D903252F
:10183000002DB3D1274A1369A1690B431361ADE7AA
:10184000244A126812F0020F1AD02249CA6822F004
:1018500003021343CB600025AFE71E4A126812F45F
:10186000806FF2D10125A8E71A4A126812F4003FEE
:10187000EBD1184A126812F4802FE6D101259CE7BB
:1018800001259AE7012F11D012480369134A1A4023
:10189000A16863695B08013B5B0643EA0123616859
:1018A000013943EA011313430361AEE709480369B1
:1018B0000B4A1A40A16823695B08013B5B0543EAB8
:1018C00001236168013943EA0113134303619CE773
:1018D000012563E7001002400F80FF070F80FFF92A
:1018E0000F809FFF2DE9F04182B00446036813F496
:1018F000006F34D0C36E402B1FD00BD823B3202BE6
:1019000005D100212030FFF785FE064621E00127A2
:101910003E4626E0602B20D0802B0BD10026634A68
:10192000D2F89C3023F0E003E16E0B43C2F89C3008
:10193000002716E001273E4613E05C4AD36843F4D3
:101940008033D3600026EAE700210430FFF716FF5A
:101950000646002EE3D0374603E00026DFE70027E7
:101960003E46236813F4805F33D0236FB3F5007FC6
:1019700022D00DD833B3B3F5807F06D1002104F116
:101980002000FFF747FE064608E001273E4620E01C
:10199000B3F5407F02D0B3F5806F0AD1C6B9434A90
:1019A000D2F89C3023F4E063216F0B43C2F89C30E3
:1019B0000FE001273E460CE03C4AD36843F48033F5
:1019C000D360EBE70021201DFFF7D8FE0646E5E7D0
:1019D0003746236813F4003F71D0344B9B6D13F0EE
:1019E000805F4ED1314B9A6D42F080529A659B6D6B
:1019F00003F080530193019B4FF001082C4A1368B8
:101A000043F480731360FFF7A3F80546284B1B6867
:101A100013F4807F05D1FFF79BF8401B0228F5D90E
:101A20000326002E46D1214BD3F8903013F4407397
:101A300016D0D4F890209A4212D01C4AD2F8903096
:101A400023F44073D2F8901041F48031C2F8901022
:101A5000D2F8901021F48031C2F89010C2F8903082
:101A600013F0010F10D1002E40F059810F4AD2F827
:101A7000903023F44073D4F890100B43C2F89030A8
:101A800019E04FF00008B9E7FFF762F80546074B89
:101A9000D3F8903013F0020FE5D1FFF759F8401B4F
:101AA00041F288339842F2D90326DCE70010024065
:101AB000007000403746B8F1000F40F032812368D3
:101AC00013F0010F08D0B64AD2F8883023F0030390
:101AD000E16B0B43C2F88830236813F0020F08D083
:101AE000AF4AD2F8883023F00C03216C0B43C2F8C4
:101AF0008830236813F0040F08D0A94AD2F8883040
:101B000023F03003616C0B43C2F88830236813F074
:101B1000080F08D0A24AD2F8883023F0C003A16C85
:101B20000B43C2F88830236813F0100F08D09C4A8A
:101B3000D2F8883023F44073E16C0B43C2F888304C
:101B4000236813F0200F08D0954AD2F8883023F488
:101B50004063216D0B43C2F88830236813F4007F83
:101B600008D08F4AD2F8883023F44023616E0B43AB
:101B7000C2F88830236813F4806F08D0884AD2F8FE
:101B8000883023F44013A16E0B43C2F888302368D9
:101B900013F0400F08D0824AD2F8883023F4405323
:101BA000616D0B43C2F88830236813F0800F08D0B2
:101BB0007B4AD2F8883023F44043A16D0B43C2F82E
:101BC0008830236813F4807F08D0754AD2F88830B3
:101BD00023F44033E16D0B43C2F88830236813F4DB
:101BE000801F08D06E4AD2F89C3023F00303216E88
:101BF0000B43C2F89C30236813F4005F11D0684A8D
:101C0000D2F8883023F04063616F0B43C2F888300C
:101C1000636FB3F1006F00F08A80B3F1806F00F062
:101C20008B80236813F4002F1FD0A36FB3F5804F70
:101C300000F08B805A4AD2F89C3023F48043C2F8DB
:101C40009C30D2F8883023F04063A16F0B43C2F878
:101C50008830A36FB3F1006F7FD0B3F5804F00F0F1
:101C60008280B3F1806F00F08480236813F4802FAA
:101C70000FD04B4AD2F8883023F04063E16F0B431A
:101C8000C2F88830E36FB3F1006F7BD0B3F1806F9F
:101C90007DD0236813F4804F0ED0414AD2F88830AB
:101CA00023F04053D4F880100B43C2F88830D4F8A6
:101CB0008030B3F1805F75D0236813F4803F09D082
:101CC000374AD2F89C3023F00403D4F884100B4335
:101CD000C2F89C30236813F4001F09D0304AD2F8B0
:101CE0009C3023F01803D4F888100B43C2F89C30C2
:101CF000236813F0807F0ED0294AD2F89C3023F459
:101D00004013D4F88C100B43C2F89C30D4F88C30BC
:101D1000B3F5001F4ED0384602B0BDE8F08137461B
:101D2000C9E61F4A936D23F080539365C7E6D368D5
:101D300043F48013D36074E70121201DFFF71EFDDB
:101D400000283FF46EAF07466BE7154AD2F89C3087
:101D500043F48043C2F89C307BE7114AD36843F4D4
:101D60008013D36081E70E4AD36843F48033D36095
:101D70007BE70121201DFFF701FD00283FF475AF2F
:101D8000074672E7D36843F48013D36081E70121EB
:101D9000201DFFF7F3FC00283FF47BAF074678E7F0
:101DA000001002400221201DFFF7E8FC002883D02C
:101DB000074681E7D36843F48013D360ABE700BFE5
:101DC000F0B583B0002362E085685E000324B44070
:101DD00025EA0405CC68B4402C438460446824EAB6
:101DE0000C0C4C68C4F300149C4044EA0C0444609E
:101DF0005FE0DD08083550F8256003F007044FEA7E
:101E0000840C0F2404FA0CF426EA040E0C6904FA7C
:101E10000CF444EA0E0440F8254061E0072400E099
:101E2000002404FA0EF42C430CF1020C5C4D45F82E
:101E30002C405C4CA568D44325EA02064F6817F491
:101E4000801F01D042EA0506564DAE60ED6804EAF7
:101E500005064F6817F4001F01D042EA0506514DF0
:101E6000EE606D6804EA05064F6817F4003F01D084
:101E700042EA05064B4D6E602D682C404E6816F404
:101E8000803F01D042EA0504464A146001330A68E3
:101E900032FA03F400F081804FF0010C0CFA03FCDD
:101EA0001CEA0202F2D04C6804F00304013C012C4D
:101EB0008AD94C6804F00304032C0CD0C4685D007C
:101EC0004FF0030C0CFA05FC24EA0C0C8C68AC40B7
:101ED00044EA0C04C4604C6804F00304022C88D06B
:101EE00004684FEA430E4FF0030C0CFA0EFC24EA90
:101EF0000C0C4C6804F0030404FA0EF444EA0C04DD
:101F000004604C6814F4403FC0D0274C256E45F067
:101F100001052566246E04F001040194019C4FEA3A
:101F2000930C0CF102051E4C54F8255003F00304E9
:101F30004FEA840E0F2404FA0EF425EA0405B0F1EA
:101F4000904F3FF46DAF194CA0421AD004F5806455
:101F5000A04218D004F58064A04216D004F5806435
:101F6000A04214D004F58064A04212D004F580642D
:101F7000A04210D004F58064A0423FF44FAF082483
:101F80004FE701244DE702244BE7032449E70424EB
:101F900047E7052445E7062443E703B0F0BD00BF4B
:101FA000000001400004014000100240000400480D
:101FB0000369194201D001207047002070470AB11F
:101FC0008161704781627047074B186800F4C060F8
:101FD000B0F5806F04D0D3F8800010F4807000D189
:101FE00070474FF40070FBE700700040002836D1C6
:101FF0003E4B1B6803F4C063B3F5806F08D03B4AC7
:10200000D2F8803023F48073C2F88030002070470B
:10201000364AD2F8803023F48073C2F880301368D7
:1020200023F4C06343F400731360314B1B68322206
:1020300002FB03F32F4AA2FB03239B0C013300E0B6
:10204000013B2A4A526912F4806F01D0002BF7D16C
:10205000264B5B6913F4806F44D100207047B0F5C4
:10206000007F08D0214A136823F4C06343F48063DF
:102070001360002070471D4B1B6803F4C063B3F569
:10208000806F08D0194AD2F8803043F48073C2F8C8
:10209000803000207047154AD2F8803043F48073B6
:1020A000C2F88030136823F4C06343F400731360F4
:1020B0000F4B1B68322202FB03F30E4AA2FB0323E1
:1020C0009B0C013300E0013B084A526912F4806F17
:1020D00001D0002BF7D1054B5B6913F4806F03D15E
:1020E00000207047032070470320704700700040B5
:1020F0000800002083DE1B43074AD36823F4E06313
:102100001B041B0C000200F4E060034343F0BF63B8
:1021100043F40033D360704700ED00E000B5194B85
:10212000DB68C3F30223C3F1070CBCF1040F28BF23
:102130004FF0040C03F1040EBEF1060F18D9033B57
:102140004FF0FF3E0EFA0CFC21EA0C0199400EFA0A
:1021500003F322EA0303194300280BDB0901C9B288
:1021600000F1604000F5614080F800135DF804FB69
:102170000023E5E700F00F000901C9B2024B195432
:10218000F4E700BF00ED00E014ED00E00138B0F12D
:10219000807F0BD24FF0E0235861054AF02182F88E
:1021A00023100020986107221A61704701207047B0
:1021B00000ED00E0034AD2F8883043F47003C2F81F
:1021C0008830704700ED00E000B58BB0304B98428E
:1021D00019D0304B984230D02F4B98423BD02F4BE8
:1021E000984246D02E4B98421AD103F1784303F51A
:1021F0000133DA6C42F00802DA64DB6C03F00803A6
:102200000493049B0CE003F1784303F50333DA6C89
:1022100042F00202DA64DB6C03F002030093009BDD
:10222000059101230693002307930893099305A9B9
:10223000FFF7C6FD0BB05DF804FB03F1784303F52F
:102240000233DA6C42F00402DA64DB6C03F004035C
:102250000193019BE4E703F1784303F5FE33DA6C65
:1022600042F02002DA64DB6C03F020030293029B4D
:10227000D6E703F1784303F50033DA6C42F010023D
:10228000DA64DB6C03F010030393039BC8E700BF21
:1022900000040048000800480014004800100048EE
:1022A000000C004808B50022FFF789FE08BD0000B9
:1022B00010B50A4C01224FF400412046FFF77FFE83
:1022C0001420FEF74BFC00224FF400412046FFF79C
:1022D00076FE1420FEF742FC10BD00BF000C004843
:1022E000F8B5044607091F4DC0F300124FF48041B2
:1022F0002846FFF764FE1C4E07F002024FF400610F
:102300003046FFF75CFE07F004024FF400713046E0
:10231000FFF755FE07F008024FF400512846FFF77B
:102320004EFEFFF7C5FF04F001024FF4804128463E
:10233000FFF745FE04F002024FF400613046FFF75C
:102340003EFE04F004024FF400713046FFF737FE02
:1023500004F008024FF400512846FFF730FEFFF763
:10236000A7FFF8BD001400480010004810B504464F
:1023700000224FF480510548FFF721FE1420FEF79C
:10238000EDFB2046FFF7ACFF10BD00BF0014004876
:1023900070B51A4E4FF4E0413046FFF715FF184D67
:1023A0004FF420612846FFF70FFF164C4FF4004111
:1023B0002046FFF709FF4FF4E0413046FFF772FF78
:1023C0004FF420612846FFF76DFF4FF4004120468F
:1023D000FFF768FF0C20FFF7C9FF3220FEF7BEFBB6
:1023E0002820FFF7C3FF3220FEF7B8FB0120FFF7DC
:1023F000BDFF3220FEF7B2FB70BD00BF00140048E5
:1024000000100048000C004870B50446016883685D
:102410000269134342691343C26913430868964A29
:10242000024013430B602268536823F44053E16871
:102430000B435360A1692268904B9A4201D0236AF2
:102440001943936823F06E4323F430630B43936086
:102450002268D36A23F00F03616A0B43D3622368B7
:10246000874A934210D0874A934221D0864A9342AA
:1024700037D0864A93425CD0854A93426BD07F4ADC
:1024800093427DD010223AE002F55842D2F88820DB
:1024900002F00302032A09D8DFE802F002048706EB
:1024A00001222CE004222AE0082228E0102226E063
:1024B00002F5E632D2F8882002F00C020C2A0ED87F
:1024C000DFE802F0070D0D0D090D0D0D750D0D0D59
:1024D0000B00002213E0042211E008220FE010227A
:1024E0000DE002F5E432D2F8882002F03002202A12
:1024F0005FD01AD8002A5ED0102A5ED104225F492C
:102500008B4276D0E069B0F5004F00F0C980082A10
:1025100000F23481DFE812F0F7001901F500320112
:102520001C013201320132011F01302A47D1082239
:10253000E5E702F5E232D2F8882002F0C002802AF4
:102540003FD004D8FAB3402A3FD10422D7E7C02AAB
:102550003DD10822D3E702F5E032D2F8882002F418
:102560004072B2F5007F34D005D8A2B3B2F5807FB7
:1025700033D10422C3E7B2F5407F30D10822BEE751
:1025800002F5C832D2F8882002F44062B2F5006F3A
:1025900027D005D83AB3B2F5806F26D10422AEE732
:1025A000B2F5406F23D10822A9E70222A7E7022251
:1025B000A5E70222A3E70022A1E710229FE710224D
:1025C0009DE702229BE7002299E7102297E710225D
:1025D00095E7022293E7002291E710228FE710226D
:1025E0008DE702228BE7002289E7102287E710227D
:1025F00085E7082A00F2B280DFE802F008B03BB0BD
:1026000038B0B0B005004FF4004004E0FEF7DEFF44
:10261000002800F0A580626A1E4B33F81220B0FB40
:10262000F2F3656805EB4501994200F29B80B3EB3C
:10263000053F00F29980002633463146FDF7E0FD64
:10264000090241EA106100026B08C0182A463346AD
:1026500041F10001FDF7D4FDA0F540720E4B9A4206
:1026600000F284802368D860304665E0FEF70EFBF8
:10267000CEE70A48CFE700BFF369FFCF00800040F4
:10268000003801400044004000480040004C004039
:1026900000500040F8320008FFFC0F000024F40056
:1026A000082A65D8DFE802F0072705642A64646415
:1026B0000B00354803E0FEF789FF00285AD0626A14
:1026C000324B33F81230B0FBF3F06268530803EB7F
:1026D0004000B0FBF2F0A0F110024FF6EF739A4207
:1026E0004AD883B223F00F03C0F342001843236893
:1026F000D860002020E0FEF77BFFDEE7FEF7C6FA99
:10270000DBE7214803E0FEF761FF002838D0626A6A
:102710001E4B33F81230B0FBF3F0636800EB53004C
:10272000B0FBF3F0A0F110024FF6EF739A4229D8F4
:10273000236880B2D86000200123A4F86A30A4F88E
:10274000683000232367636770BDFEF751FFDCE745
:10275000FEF79CFAD9E74FF40040D8E70120EBE7F9
:102760000020E9E70120E7E70120E5E70120E3E7B2
:102770000120E1E70020DFE70120DDE70120DBE7C2
:102780000020D9E70120D7E70024F400F832000840
:10279000836A13F0010F06D00268536823F40033F4
:1027A000C16A0B435360836A13F0020F06D00268BC
:1027B000536823F48033016B0B435360836A13F037
:1027C000040F06D00268536823F48023416B0B4347
:1027D0005360836A13F0080F06D00268536823F42D
:1027E0000043816B0B435360836A13F0100F06D0D4
:1027F0000268936823F48053C16B0B439360836A30
:1028000013F0200F06D00268936823F40053016C84
:102810000B439360836A13F0400F0AD00268536839
:1028200023F48013416C0B435360436CB3F5801F5A
:102830000BD0836A13F0800F06D00268536823F42C
:102840000023C16C0B43536070470268536823F444
:10285000C003816C0B435360EBE72DE9F843054659
:102860000F4616469946DDF820802C68E46937EA61
:1028700004030CBF4FF0010C4FF0000CB44557D1CE
:10288000B8F1FF3FF1D0FEF763F9A0EB0900404536
:102890002FD8B8F1000F2CD02B681A6812F0040F53
:1028A000E3D0DA6912F4006FDFD04FF400621A62ED
:1028B0002A6852E8003F23F4D07342E8003100292F
:1028C000F6D12A6802F1080353E8003F23F0010320
:1028D000083242E800310029F3D12023C5F88430C2
:1028E000C5F88830C5F88C30002385F88030032087
:1028F0001FE02A6852E8003F23F4D07342E8003119
:102900000029F6D12A6802F1080353E8003F23F0BA
:102910000103083242E800310029F3D12023C5F831
:102920008430C5F88830002385F88030032000E02B
:102930000020BDE8F88330B583B004460023C0F81A
:102940008C30FEF705F905462268126812F0080F70
:102950000FD123681B6813F0040F18D12023C4F88B
:102960008430C4F888300020E06684F8800003B02A
:1029700030BD6FF07E430093034600224FF40011F8
:102980002046FFF76AFF0028E3D00320EFE76FF04F
:102990007E4300932B4600224FF480012046FFF730
:1029A0005CFF0028DAD00320E1E778B310B50446D5
:1029B000D0F884300BB32423C4F884302268136821
:1029C00023F0010313602046FFF71EFD012813D0FA
:1029D000A36ABBB92268536823F49043536022680A
:1029E000936823F02A0393602268136843F001037D
:1029F00013602046FFF79FFF10BD80F88030FDF781
:102A0000D7FFD8E72046FFF7C3FEE3E70120704772
:102A1000436E2BB90123A0F86A30A0F868307047E4
:102A200030B403689A68C2F342629968490F094D4D
:102A30006B5CDB00084C615C93FBF1F3A0F86A303F
:102A4000AB5CDB00A25C93FBF2F3A0F8683030BC17
:102A5000704700BF183300081033000890F880302A
:102A6000012B18D0012380F880302423C0F8843053
:102A700003681A68196821F00101196022F00052F8
:102A80000023436601680A602022C0F8842080F891
:102A90008030184670470220704738B590F8803073
:102AA000012B1DD00446012380F880302423C0F878
:102AB000843003681D681A6822F001021A600268F7
:102AC000936823F0604319439160FFF7A1FF2368E7
:102AD0001D602023C4F88430002084F8800038BDB5
:102AE0000220FCE738B590F88030012B1DD0044659
:102AF000012380F880302423C0F8843003681D68E7
:102B00001A6822F001021A600268936823F0606379
:102B100019439160FFF77CFF23681D602023C4F8F0
:102B20008430002084F8800038BD0220FCE70000DB
:102B300030B583B000230193002800F0DC80044608
:102B4000836D13B323689A6812F0005F05D09A680A
:102B500022F0204222F03F029A602268936813F02C
:102B6000805F1FD1936823F0104323F03F0343F0AD
:102B700080539360614B1B689B09614AA2FB03234E
:102B80009B0901335B00019309E0FDF7C1FE0023BF
:102B9000E36584F85430D5E7019B013B0193019B29
:102BA000002BF9D12268936813F0805F7AD1A36D6E
:102BB00043F01003A365E36D43F00103E3650120D7
:102BC000936813F0040300D00123A16D11F0100FDE
:102BD00040F08A80002B40F08780A36D23F481733E
:102BE00043F00203A365936813F0010F0BD1454B2B
:102BF0009B6813F0010F06D1636843498A6822F489
:102C00007C1213438B60627E636B43EA4233E2685B
:102C10001343A268134394F8202043EA0243012A95
:102C200042D0A26A22B102F47072E16A0A431343ED
:102C30002168CD68354A2A401343CB6021688B68F0
:102C400013F0040300D001238A6812F0080200D0B8
:102C50000122C3B9BAB9E36C227E43EA823394F805
:102C6000302043EA4202CB6823F4804323F006037A
:102C70001343CB6094F83830012B1AD022681369C3
:102C800023F0010313612369012B24D02268136B05
:102C900023F00F031363A36D23F0030343F0010339
:102CA000A36526E000208BE7626A013A43EA4243CB
:102CB000B7E721680B6923F4FF6323F00403E26B99
:102CC000256C2A43656C2A43A56C2A43134343F0C1
:102CD00001030B61D7E721680B6B23F00F03E26957
:102CE000013A13430B63D6E7A36D43F01003A365CA
:102CF000012003B030BD0120FBE700BF0800002029
:102D0000632D3E05000004500003045007C0F0FF8F
:102D1000F0B583B00022019290F85420012A00F00F
:102D200059820346012280F854200268926812F00A
:102D3000040F09D0826D42F020028265012000223A
:102D400083F8542003B0F0BD4A68052A09D8023A36
:102D5000032A00F29E80DFE802F0029295980C228E
:102D60004A601D684C683035220A920002F00C025D
:102D7000A85804F01F0E1F2404FA0EF420EA0400E1
:102D80000C68C4F3846C0CFA0EFC40EA0C00A850EA
:102D90001C68A26812F0040200D00122A06810F0A2
:102DA000080000D00120002A35D1002833D18868DE
:102DB000B0F1004F70D00E681434720E920002F021
:102DC0000402A558C6F3045C072606FA0CF625EAA9
:102DD000060500FA0CF02843A0501868426922F05A
:102DE000004242614C691868C268C2F3C1025200D5
:102DF00004FA02F20D69042D63D00E68603050F8B9
:102E00002570AD4C3C4006F0F8463243144344F084
:102E1000004440F825401868826812F0010F17D16D
:102E20000A68CD68D0F8B040C2F3120C24EA0C0452
:102E300005F0180CA14D25FA0CF52A40C2F3120238
:102E40002243C0F8B020C8689D4A904200F0A1809B
:102E50000A689C490A4200F0B9819B49896801F0DF
:102E6000E0749A48824200F063819948824200F0FF
:102E700086819848824200F0968100205FE7122206
:102E80004A606EE718224A606BE74FF480724A602E
:102E900067E706224A6064E708681434420E92002D
:102EA00002F00402A558C0F30450072606FA00F009
:102EB00025EA0000A0501868426942F000424261D1
:102EC00090E7026E046EC4F384640A68C2F31205CC
:102ED00085BBC2F38462944234D01C68626E606E1B
:102EE000C0F384600A68C2F3120585BBC2F3846232
:102EF000904234D01C68A26EA06EC0F384600A6851
:102F0000C2F3120585BBC2F38462904234D01C68C0
:102F1000E26EE06EC0F384600A68C2F3120585BBFE
:102F2000C2F3846290427FF476AFE26E22F00042F8
:102F3000E26670E792FAA2F212B1B2FA82F2CAE73E
:102F40002022C8E7026E22F000420266C5E792FA2C
:102F5000A2F212B1B2FA82F2CAE72022C8E7626E88
:102F600022F000426266C5E792FAA2F212B1B2FA0A
:102F700082F2CAE72022C8E7A26E22F00042A266CF
:102F8000C5E792FAA2F212B1B2FA82F2CAE720229F
:102F9000C8E71C680A68C2F31205002D38D1900EEC
:102FA000013000F01F0009288CBF002001200028FC
:102FB00066D0002D3BD1900E0130800600F0F84025
:102FC000002D40D1960E013606F01F070126BE40A7
:102FD0003043002D46D1920E013202F01F0202EB67
:102FE000420212050243886804F11406550EAD0032
:102FF00005F004057459C2F304524FF0070C0CFAA3
:1030000002FC24EA0C0C90404CEA000070511FE7CF
:1030100092FAA2F048B1B0FA80F0013000F01F003F
:1030200009288CBF00200120C1E72020F5E792FA93
:10303000A2F030B1B0FA80F00130800600F0F84024
:10304000BEE72020F8E792FAA2F64EB1B6FA86F66D
:10305000013606F01F064FF0010C0CFA06F6B7E732
:103060002026F5E792FAA2F242B1B2FA82F20132D8
:1030700002F01F0202EB42021205B3E72022F6E73C
:1030800055BB900E0130800600F0F84085BB960ECF
:10309000013606F01F070126BE403043BDBB920E2D
:1030A000013202F01F0202EB42021E3A120542F008
:1030B0000072024397E700BF00F0FF03FFFF070025
:1030C00000007F400000088000030450000052C749
:1030D000000084CB0100008092FAA2F030B1B0FA77
:1030E00080F00130800600F0F840CFE72020F8E7BC
:1030F00092FAA2F64EB1B6FA86F6013606F01F062F
:103100004FF0010C0CFA06F6C7E72026F5E792FA15
:10311000A2F25AB1B2FA82F2013202F01F0202EBBD
:1031200042021E3A120542F00072C2E72022F3E783
:1031300011F4000F7FF499AE1968274A914201D02B
:103140000020FCE544F400022448816821F0E0718D
:103150000A438260224A126892092249A1FB0212A4
:103160009209013202EB42029200019202E0019ABE
:10317000013A0192019A002AF9D10020DFE511F00D
:10318000807F7FF476AE1968134A914201D0002007
:10319000D5E544F080721148816821F0E0710A435E
:1031A00082600020CBE511F4800F11D119680A4A22
:1031B000914201D00020C2E544F4800207488168B2
:1031C00021F0E0710A4382600020B8E50020B6E5F6
:1031D0000020B4E50220B5E50000045000030450CF
:1031E00008000020632D3E05DFF834D0FEF7E2FF33
:1031F0000C480D490D4A002302E0D458C450043352
:10320000C4188C42F9D30A4A0A4C002301E0136027
:103210000432A242FBD300F011F8FDF7D5FAFEE725
:1032200000000A20000000201000002038330008B1
:1032300010000020B8010020FEE7000070B50D4D21
:103240000D4C641BA4100026A64209D10B4D0C4C5A
:1032500000F020F8641BA4100026A64205D170BD22
:1032600055F8043B98470136EEE755F8043B98477C
:103270000136F2E728330008283300082833000815
:103280002C33000802440346934200D1704703F8F0
:10329000011BF9E7F8B500BFF8BC08BC9E467047B3
:1032A000F8B500BFF8BC08BC9E467047000000009F
:1032B00000000000000000000102030406070809E6
:1032C0000000000001020304A0860100400D03007D
:1032D000801A060000350C0040420F0080841E005A
:1032E00000093D0000127A000024F40000366E014F
:1032F0000048E801006CDC02010002000400060046
:1033000008000A000C0010002000400080000001AE
:103310000804020408010101010101030701000082
:0833200010CFFF7F0100000047
:08332800E501000800000000AF
:08333000C101000800000000CB
:10333800010000001000000000093D00000000002E
:04000005080031E9D5
:00000001FF
