:020000040800F2
:1000000000000A20C9140008CD020008CF02000831
:10001000D1020008D3020008D50200080000000049
:10002000000000000000000000000000D7020008EF
:10003000D902000800000000DB020008DD02000811
:1000400019150008191500081915000819150008D8
:1000500019150008191500081915000819150008C8
:1000600019150008191500081915000819150008B8
:1000700019150008191500081915000819150008A8
:100080001915000819150008191500081915000898
:100090001915000819150008191500081915000888
:1000A0001915000819150008191500081915000878
:1000B0001915000819150008191500081915000868
:1000C0001915000819150008191500081915000858
:1000D0001915000819150008191500081915000848
:1000E0001915000819150008191500081915000838
:1000F000191500081915000819150008000000005E
:100100001915000819150008191500081915000817
:100110001915000819150008191500081915000807
:1001200019150008191500081915000819150008F7
:1001300019150008191500081915000819150008E7
:1001400019150008191500081915000819150008D7
:1001500019150008191500081915000819150008C7
:1001600019150008191500081915000819150008B7
:100170001915000819150008000000000000000013
:100180001915000819150008191500081915000897
:1001900019150008191500080000000000000000F3
:1001A00000000000000000001915000819150008E3
:1001B000191500081915000819150008000000009D
:1001C00010B5054C237833B9044B13B10448AFF391
:1001D00000800123237010BD1000002000000000EB
:1001E0007415000808B5034B1BB103490348AFF36E
:1001F000008008BD000000001400002074150008F5
:1002000072B6FEE700B597B04422002105A801F0C0
:10021000A9F90023009301930293039304934FF4ED
:10022000007000F003FFD0B91023059301230B9356
:1002300000230C9360220D920F9305A800F0A6F9FD
:1002400078B90F2300930021019102910391049149
:10025000684600F0D9FC30B917B05DF804FBFFF731
:10026000CFFFFFF7CDFFFFF7CBFF000000B583B056
:1002700000F078F8FFF7C6FF4FF400610E4800F079
:10028000C3FF0E4C8021204600F0DEFF80210C4889
:1002900000F0DAFF4FF48041204600F0D5FF01F076
:1002A000C1F8084B0193012101A801F0F7F80221E0
:1002B000054801F0F3F8F4E7001000480004004896
:1002C000000800484C616C0090150008FEE7FEE74E
:1002D000FEE7FEE7FEE770477047704708B500F09D
:1002E00051F808BD82B00A4B1A6E42F001021A663C
:1002F0001A6E02F001020092009A9A6D42F080524A
:100300009A659B6D03F080530193019B02B0704787
:1003100000100240104B1B780BB90120704710B53C
:1003200004464FF47A70B0FBF3F30C4A1068B0FB4C
:10033000F3F000F04BFF68B90F2C01D901200AE05F
:10034000002221464FF0FF3000F008FF044B1C60F4
:10035000002000E0012010BD000000200800002067
:100360000400002010B5032000F0E6FE0F20FFF788
:10037000D1FF10B10124204610BD0446FFF7B2FFA3
:10038000F9E70000034B1B78034A11680B44136024
:10039000704700BF000000202C000020014B1868AF
:1003A000704700BF2C00002038B50446FFF7F6FF69
:1003B0000546B4F1FF3F02D0044B1B781C44FFF705
:1003C000EDFF401BA042FAD338BD00BF0000002063
:1003D0001A4BDB6803F00303022B2BD0032B2BD02B
:1003E000012B14D00021154AD368C3F30313013342
:1003F000D068C0F3062001FB00F0B0FBF3F0D36837
:10040000C3F3416301335B00B0FBF3F070470B4B68
:100410001B6813F0080F08D1084BD3F89430C3F3CE
:100420000323074A52F82310DDE7044B1B68C3F38C
:100430000313F6E70349D6E70349D4E70010024067
:10044000B01500080024F40000127A0030B583B023
:1004500004461F4B9B6D13F0805F0AD000F0D4FD63
:10046000B0F5007F16D07F2C1ED8702C2BD0002129
:100470001BE0174DAB6D43F08053AB65AB6D03F0E4
:1004800080530193019B00F0BFFDAB6D23F08053BF
:10049000AB65E5E7802C03D9A02C03D9022104E049
:1004A000002102E0012100E002210A4A136823F042
:1004B0000F030B431360136803F00F038B4204D147
:1004C000002003B030BD0121EFE70120F9E700BFB4
:1004D0000010024000200240284A9368D26802F0CF
:1004E000030213F00C030AD00C2B06D0042B1FD0F0
:1004F000082B20D00020024610E0012AF6D11F4A26
:10050000126812F0080F0CD11C4AD2F89420C2F3E2
:1005100003221B4951F8222043B100200C2B0DD09F
:100520007047164A1268C2F30312F2E71046F5E765
:1005300014480022F2E714480022EFE70F4BDB6873
:1005400003F00303022B16D0032B00D10E4A0B49F4
:10055000C868C0F30310431CC868C0F3062002FB40
:1005600000F0B0FBF3F0CB68C3F3416301335B00F1
:10057000B0FBF3F0D4E7034AE9E700BF0010024004
:10058000B01500080024F40000127A00002800F0E2
:100590002283F0B583B00446964B9D6805F00C05A8
:1005A000DE6806F00306036813F0100F5AD0E5B1B9
:1005B0000C2D18D0A369002B00F0BB808D4A136866
:1005C00043F001031360FFF7E9FE0746894B1B6800
:1005D00013F0020F40F09A80FFF7E0FEC01B0228E4
:1005E000F4D9032002E3012EE4D1824B1B6813F0FF
:1005F000020F03D0A369002B00F0EF82206A7D4B2D
:100600001B6813F0080F5BD07A4B1B6803F0F003F4
:1006100098425CD8774B1A6842F008021A601A6850
:1006200022F0F002216A0A431A605A6822F47F42DB
:10063000E16942EA01225A60002D60D0FFF74CFFC9
:100640006C4B9B68C3F303136B4AD35C03F01F032B
:10065000D8406A4B18606A4B1868FFF75BFE0028A9
:1006600040F0C482236813F0010F00F08180082D50
:1006700075D00C2D71D06368B3F5803F00F0978082
:10068000B3F5A02F00F099805A4B1A6822F48032FB
:100690001A601A6822F480221A606368002B00F046
:1006A0009980FFF77BFE0746524B1B6813F4003F0F
:1006B0005ED1FFF773FEC01B6428F5D9032095E2D5
:1006C0004C4BD3F894301B0903F0F003A0E7FFF77D
:1006D000BDFE002840F08382464B1A6842F00802B3
:1006E0001A601A6822F0F002216A0A431A605A68F6
:1006F00022F47F42E16942EA01225A609EE7206AC1
:10070000FFF7A4FE002899D001206FE2394B1A6848
:1007100042F008021A601A6822F0F002216A0A43C5
:100720001A605A6822F47F42E16942EA01225A6063
:1007300098E7304A136823F001031360FFF72EFE99
:1007400007462C4B1B6813F0020F8BD0FFF726FED9
:10075000C01B0228F5D9032048E2032E8BD1254B7C
:100760001B6813F4003F03D06368002B00F039824C
:10077000236813F0020F58D0042D45D00C2D41D022
:10078000E368002B77D01B4A136843F4807313602F
:10079000FFF704FE0646174B1B6813F4806F61D108
:1007A000FFF7FCFD801B0228F5D903201EE2114A49
:1007B000136843F4803313606FE703F18043A3F5BC
:1007C0003C331A6842F480221A601A6842F480327C
:1007D0001A6062E7FFF7E2FD0746064B1B6813F459
:1007E000003FC5D0FFF7DAFDC01B6428F5D9032010
:1007F000FCE100BF00100240A01500080800002026
:1008000004000020022EBBD1A74B1B6813F4806F9D
:1008100003D0E368002B00F0E681A34A536823F07D
:10082000FE43216943EA01635360236813F0080F14
:100830004CD063699BB39C4AD2F8943043F00103D7
:10084000C2F89430FFF7AAFD0646974BD3F89430D0
:1008500013F0020F3AD1FFF7A1FD801B0228F4D953
:100860000320C3E1904A536823F0FE43216943EA21
:1008700001635360D9E78C4A136823F480731360D3
:10088000FFF78CFD0646884B1B6813F4806FCCD0B5
:10089000FFF784FD801B0228F5D90320A6E1824AD8
:1008A000D2F8943023F00103C2F89430FFF776FDBC
:1008B00006467D4BD3F8943013F0020F06D0FFF7B5
:1008C0006DFD801B0228F4D903208FE1236813F00B
:1008D000040F7AD0744B9B6D13F0805F36D1724B4E
:1008E0009A6D42F080529A659B6D03F0805301939C
:1008F000019B01266D4B1B6813F4807F28D0A368F1
:10090000012B39D0052B3FD0674BD3F8902022F034
:100910000102C3F89020D3F8902022F00402C3F81B
:100920009020A368002B3DD0FFF738FD07465E4BB3
:10093000D3F8903013F0020F46D1FFF72FFDC01B04
:1009400041F288339842F2D903204FE10026D1E7E3
:10095000564A136843F480731360FFF71FFD074680
:10096000524B1B6813F4807FC9D1FFF717FDC01BE2
:100970000228F5D9032039E14B4AD2F8903043F0F0
:100980000103C2F89030CCE7474BD3F8902042F0F7
:100990000402C3F89020D3F8902042F00102C3F87B
:1009A0009020BEE7FFF7FAFC07463F4BD3F89030A4
:1009B00013F0020F08D0FFF7F1FCC01B41F288339F
:1009C0009842F2D9032011E1E6B9236813F0200F11
:1009D00035D0636AE3B1344AD2F8983043F001036A
:1009E000C2F89830FFF7DAFC06462F4BD3F8983060
:1009F00013F0020F23D1FFF7D1FC801B0228F4D99A
:100A00000320F3E0284A936D23F080539365DCE7DD
:100A1000254AD2F8983023F00103C2F89830FFF746
:100A2000BDFC0646204BD3F8983013F0020F06D0D9
:100A3000FFF7B4FC801B0228F4D90320D6E0A36A98
:100A4000002B00F0D280022B17D00C2D00F0D480A8
:100A5000154A136823F080731360FFF79FFC044668
:100A6000114B1B6813F0007F00F0AE80FFF796FC7F
:100A7000001B0228F4D90320B8E00B4BDB6803F01D
:100A80000301E26A914213D00C2D00F0B180064BB5
:100A90001B6813F0806F40F0AD80034B1B6813F0B0
:100AA000805F2FD00120A1E00010024000700040C4
:100AB00003F0F002216B0139B2EB011FE4D103F422
:100AC000FE42616BB2EB012FDED103F07842A16BE5
:100AD000B2EBC16FD8D103F4C001E26B5208013A06
:100AE000B1EB425FD0D103F0C063226C5208013AEF
:100AF000B3EB426FC8D1414B1B6813F0007F49D064
:100B0000002073E03D4A136823F080731360FFF701
:100B100045FC0546394B1B6813F0007F06D0FFF7F4
:100B20003DFC401B0228F5D903205FE0334AD3681F
:100B300033491940E36A206B013843EA0013606BC4
:100B400043EA0023E06B4008013843EA4053206C3D
:100B50004008013843EA4063A06B43EAC0630B439B
:100B6000D360136843F080731360D36843F08073DD
:100B7000D360FFF713FC0446204B1B6813F0007F83
:100B800006D1FFF70BFC001B0228F5D903202DE04E
:100B900000202BE0194B1A6842F080721A60DA6864
:100BA00042F08072DA60FFF7F9FB0446134B1B68D2
:100BB00013F0007F06D1FFF7F1FB031B022BF5D9E1
:100BC000032013E0002011E00C4AD1680D4B0B40CC
:100BD000D36000200AE001207047012006E00120D8
:100BE00004E0012002E0012000E0002003B0F0BD9D
:100BF0000120FBE70120F9E70120F7E700100240A0
:100C00000C809D01FCFFEEFE002800F0EA80F8B5A4
:100C10000D460446774B1B6803F00F038B420BD243
:100C2000744A136823F00F030B431360136803F037
:100C30000F038B4240F0D780236813F0020F0CD0D3
:100C4000A2686D4B9B6803F0F0039A4205D96A498C
:100C50008B6823F0F0031A438A60236813F0010FB6
:100C60006ED06368032B0DD0022B25D0002B3CD116
:100C700003F1804303F504331B6813F0020F21D105
:100C80000120A7E05C4B1B6813F0007F01D101201D
:100C9000A0E0FFF79DFB594B98422DD9564B9B681E
:100CA00013F0F00F2AD1544A936823F0F00343F075
:100CB00080039360802724E04F4B1B6813F4003FB0
:100CC00000F09380FFF708FC4C4B984218D94A4B30
:100CD0009B6813F0F00F2FD1474A936823F0F0037D
:100CE00043F08003936080270BE0434B1B6813F4B1
:100CF000806FE7D101206DE0002702E0002700E0CF
:100D000000273D4A936823F0030361680B43936017
:100D1000FFF744FB0646384B9B6803F00C03626800
:100D2000B3EB820F0AD0FFF739FB801B41F2883307
:100D30009842F0D903204DE00027E2E7002F4AD186
:100D4000236813F0020F0CD0A2682B4B9B6803F0B2
:100D5000F0039A4205D228498B6823F0F0031A4326
:100D60008A60244B1B6803F00F03AB420AD9214A67
:100D7000136823F00F032B431360136803F00F0372
:100D8000AB4234D1236813F0040F06D01A4A93689B
:100D900023F4E063E1680B439360236813F0080FCA
:100DA00007D0154A936823F46053216943EAC103CD
:100DB0009360FFF791FB104B9B68C3F30313104A3A
:100DC000D35C03F01F03D8400E4B18600E4B18681D
:100DD000FFF7A0FAF8BD084A936823F0F003936088
:100DE000AEE7012070470120F4E70120F2E701207F
:100DF000F0E700BF002002400010024000B4C4042D
:100E0000A01500080800002004000020F0B583B001
:100E1000002362E085685E000324B44025EA0405EF
:100E2000CC68B4402C438460446824EA0C0C4C68C1
:100E3000C4F300149C4044EA0C0444605FE0DD0805
:100E4000083550F8256003F007044FEA840C0F249E
:100E500004FA0CF426EA040E0C6904FA0CF444EAD1
:100E60000E0440F8254061E0072400E0002404FA65
:100E70000EF42C430CF1020C5C4D45F82C405C4CFC
:100E8000A568D44325EA02064F6817F4801F01D0F5
:100E900042EA0506564DAE60ED6804EA05064F6865
:100EA00017F4001F01D042EA0506514DEE606D684F
:100EB00004EA05064F6817F4003F01D042EA050630
:100EC0004B4D6E602D682C404E6816F4803F01D06B
:100ED00042EA0504464A146001330A6832FA03F410
:100EE00000F081804FF0010C0CFA03FC1CEA0202B6
:100EF000F2D04C6804F00304013C012C8AD94C6800
:100F000004F00304032C0CD0C4685D004FF0030C04
:100F10000CFA05FC24EA0C0C8C68AC4044EA0C0486
:100F2000C4604C6804F00304022C88D004684FEAC3
:100F3000430E4FF0030C0CFA0EFC24EA0C0C4C6828
:100F400004F0030404FA0EF444EA0C0404604C6850
:100F500014F4403FC0D0274C256E45F001052566AE
:100F6000246E04F001040194019C4FEA930C0CF1EF
:100F700002051E4C54F8255003F003044FEA840E7A
:100F80000F2404FA0EF425EA0405B0F1904F3FF463
:100F90006DAF194CA0421AD004F58064A04218D05D
:100FA00004F58064A04216D004F58064A04214D0F9
:100FB00004F58064A04212D004F58064A04210D0F1
:100FC00004F58064A0423FF44FAF08244FE70124AA
:100FD0004DE702244BE7032449E7042447E70524AF
:100FE00045E7062443E703B0F0BD00BF0000014021
:100FF0000004014000100240000400480AB1816171
:101000007047816270470000074B186800F4C060A9
:10101000B0F5806F04D0D3F8800010F4807000D158
:1010200070474FF40070FBE700700040002836D195
:101030003E4B1B6803F4C063B3F5806F08D03B4A96
:10104000D2F8803023F48073C2F8803000207047DB
:10105000364AD2F8803023F48073C2F880301368A7
:1010600023F4C06343F400731360314B1B683222D6
:1010700002FB03F32F4AA2FB03239B0C013300E086
:10108000013B2A4A526912F4806F01D0002BF7D13C
:10109000264B5B6913F4806F44D100207047B0F594
:1010A000007F08D0214A136823F4C06343F48063AF
:1010B0001360002070471D4B1B6803F4C063B3F539
:1010C000806F08D0194AD2F8803043F48073C2F898
:1010D000803000207047154AD2F8803043F4807386
:1010E000C2F88030136823F4C06343F400731360C4
:1010F0000F4B1B68322202FB03F30E4AA2FB0323B1
:101100009B0C013300E0013B084A526912F4806FE6
:1011100001D0002BF7D1054B5B6913F4806F03D12D
:101120000020704703207047032070470070004084
:101130000800002083DE1B43074AD36823F4E063E2
:101140001B041B0C000200F4E060034343F0BF6388
:1011500043F40033D360704700ED00E000B5194B55
:10116000DB68C3F30223C3F1070CBCF1040F28BFF3
:101170004FF0040C03F1040EBEF1060F18D9033B27
:101180004FF0FF3E0EFA0CFC21EA0C0199400EFADA
:1011900003F322EA0303194300280BDB0901C9B258
:1011A00000F1604000F5614080F800135DF804FB39
:1011B0000023E5E700F00F000901C9B2024B195402
:1011C000F4E700BF00ED00E014ED00E00138B0F1FD
:1011D000807F0BD24FF0E0235861054AF02182F85E
:1011E00023100020986107221A6170470120704780
:1011F00000ED00E0034AD2F8883043F47003C2F8EF
:101200008830704700ED00E000B587B00D4B984284
:101210000AD00191002302930393059301A9FFF7DC
:10122000F5FD07B05DF804FB03F1784303F50033E7
:10123000DA6C42F01002DA64DB6C03F01003009306
:10124000009BE6E70010004800B58BB0304B984299
:1012500019D0304B984230D02F4B98423BD02F4B77
:10126000984246D02E4B98421AD103F1784303F5A9
:101270000133DA6C42F00802DA64DB6C03F0080335
:101280000493049B0CE003F1784303F50333DA6C19
:1012900042F00202DA64DB6C03F002030093009B6D
:1012A000059101230693002307930893099305A949
:1012B000FFF7ACFD0BB05DF804FB03F1784303F5D9
:1012C0000233DA6C42F00402DA64DB6C03F00403EC
:1012D0000193019BE4E703F1784303F5FE33DA6CF5
:1012E00042F02002DA64DB6C03F020030293029BDD
:1012F000D6E703F1784303F50033DA6C42F01002CD
:10130000DA64DB6C03F010030393039BC8E700BFB0
:10131000000400480008004800140048001000487D
:10132000000C004808B50022FFF768FE08BD000069
:1013300010B50A4C01224FF400412046FFF75EFE33
:101340001420FFF731F800224FF400412046FFF748
:1013500055FE1420FFF728F810BD00BF000C004810
:10136000F8B5044607091F4DC0F300124FF4804141
:101370002846FFF743FE1C4E07F002024FF40061BF
:101380003046FFF73BFE07F004024FF40071304691
:10139000FFF734FE07F008024FF400512846FFF72C
:1013A0002DFEFFF7C5FF04F001024FF480412846EF
:1013B000FFF724FE04F002024FF400613046FFF70D
:1013C0001DFE04F004024FF400713046FFF716FED4
:1013D00004F008024FF400512846FFF70FFEFFF714
:1013E000A7FFF8BD001400480010004810B50446DF
:1013F00000224FF480510348FFF700FE2046FFF71C
:10140000AFFF10BD0014004810B5044601224FF490
:1014100080510348FFF7F2FD2046FFF7A1FF10BD02
:101420000014004870B51A4E4FF4E0413046FFF703
:101430000BFF184D4FF420612846FFF705FF164CAF
:101440004FF400412046FFF7FFFE4FF4E0413046E5
:10145000FFF768FF4FF420612846FFF763FF4FF462
:1014600000412046FFF75EFF0C20FFF7BFFF322050
:10147000FEF79AFF2820FFF7B9FF3220FEF794FF0E
:101480000120FFF7B3FF3220FEF78EFF70BD00BFD3
:101490000014004800100048000C004810B5044635
:1014A000012905D002290AD1C020FFF79FFF06E0DD
:1014B0008020FFF79BFF02E0FFF7A6FF01342078B2
:1014C0000028F9D110BD0000DFF834D0FFF792FEFC
:1014D0000C480D490D4A002302E0D458C45004338F
:1014E000C4188C42F9D30A4A0A4C002301E0136065
:1014F0000432A242FBD300F011F8FEF7B7FEFEE77C
:1015000000000A200000002010000020F015000854
:101510001000002030000020FEE7000070B50D4DE7
:101520000D4C641BA4100026A64209D10B4D0C4C97
:1015300000F020F8641BA4100026A64205D170BD5F
:1015400055F8043B98470136EEE755F8043B9847B9
:101550000136F2E7E0150008E0150008E015000884
:10156000E415000802440346934200D1704703F893
:10157000011BF9E7F8B500BFF8BC08BC9E467047F0
:10158000F8B500BFF8BC08BC9E46704700000000DC
:1015900048617272696E2044656C696E610000007A
:1015A0000000000000000000010203040607080913
:1015B000A0860100400D0300801A060000350C00D3
:1015C00040420F0080841E0000093D0000127A0096
:1015D0000024F40000366E010048E801006CDC02D3
:0815E000E50100080000000015
:0815E800C10100080000000031
:1015F000010000001000000000093D000000000094
:04000005080014C912
:00000001FF
